:020000041000EA
:1000000000B5324B212058609868022188439860DF
:10001000D860186158612E4B002199600221596106
:100020000121F02299502B49196001219960352056
:1000300000F044F80222904214D00621196600F024
:1000400034F8196E01211966002018661A6600F04E
:100050002CF8196E196E196E052000F02FF8012189
:100060000842F9D1002199601B49196000215960AB
:100070001A491B48016001219960EB211966A021F2
:10008000196600F012F800219960164914480160C1
:100090000121996001BC002800D000471248134993
:1000A000086003C880F30888084703B5996A0420EC
:1000B0000142FBD001200142F8D103BD02B5186610
:1000C0001866FFF7F2FF186E186E02BD00000240BE
:1000D000000000180000070000035F00212200005C
:1000E000F4000018222000A00001001008ED00E03C
:1000F00000000000000000000000000074B24E7A12
:1001000000200420F7010010C3010010C5010010F9
:10011000C1010010C1010010C1010010C101001097
:10012000C1010010C1010010C1010010C701001081
:10013000C1010010C1010010C9010010CB01001065
:10014000CD010010CD010010CD010010CD01001037
:10015000CD010010CD010010CD010010CD01001027
:10016000CD010010CD010010CD010010CD01001017
:10017000CD010010CD010010CD010010CD01001007
:10018000CD010010CD010010CD010010CD010010F7
:10019000CD010010CD010010CD010010CD010010E7
:1001A000CD010010CD010010CD010010CD010010D7
:1001B000CD010010CD010010CD010010CD010010C7
:1001C00000BE00BE00BE00BE00BE00BEEFF3058054
:1001D000103800BEF2EB8871D4AA0010F4AA001007
:1001E0003802001090A31AE71E481F49086006C88D
:1001F00081F3088810471D480068002801D019487D
:10020000F3E70DA40ECC002902D000F012F8F9E7B4
:100210001749184A002000E001C19142FCD116495B
:100220008847164988471649884700BEFDE701C937
:1002300001C29A42FBD37047F4AA0010C00000200C
:10024000D81500200CC0001000000420000004207D
:100250000CC000100010042000100420000000005A
:10026000704700000000000008ED00E0000000D032
:10027000D8150020982A0020A16900108D030010D5
:1002800099690010F8B5C0460448054B10B5834283
:1002900003D0044B002B00D0984710BDD815002088
:1002A000D81500200000000006480749091A8B10E5
:1002B000C90FC91810B5491003D0044B002B00D04A
:1002C000984710BDD8150020D81500200000000068
:1002D00010B5074C2378002B09D1FFF7D5FF054B4C
:1002E000002B02D0044800E000BF0123237010BDA2
:1002F0006819002000000000E0A20010054B10B5B6
:10030000002B03D00449054800E000BFFFF7CCFFF5
:1003100010BDC046000000006C190020E0A20010D3
:100320000222014B1A707047932A002010B5040076
:10033000054806F0B7FC04222100044804F05CFFE5
:100340000022034B1A7010BDE0A20010A01C002078
:10035000932A002010B5024806F0A4FC10BDC04648
:10036000E8A2001010B5034806F09CFC0222024BE4
:100370001A7010BDF4A20010932A002010B5024894
:1003800006F090FC10BDC04600A30010F0B5DE469C
:1003900057464E464546E0B5D026802791B006F038
:1003A00031FC360609F0A2F9BF0401F00DFE01F0A0
:1003B0002DFE192002F010FC1F211A20776202F096
:1003C00061FB002200211A2002F076FB00211A2096
:1003D00002F0EEFBE022814BD2011B688048134003
:1003E000804A00241360804B012503607F4B8360AB
:1003F0007F4B43607F4BC3607F4B03617F4B9A46CB
:100400001B68984753467E48DB6898477D4B00221F
:100410000893082398460293013B00935346DB69F7
:10042000162199460120002307940694059403940D
:1004300004950195C847052302934346019353460B
:100440000722002101200894079406940494039441
:10045000009409959C6905950123A0475346042102
:1004600001205B6D98470424FA207761400003F077
:1004700077FBFA20B7614000013C03F071FB002CD0
:10048000F2D1614806F00EFC53461B6E99465F4B55
:1004900098465F4B0B935F4B0C935F4B0E935F4BF8
:1004A0000F935F4B0D9343461B78012B53D0022BC8
:1004B0006CD0002B47D10B980A2506F0F3FB0023E4
:1004C0000426584F454CAB461D1C80223E6052000E
:1004D00023681342FCD060680004000C04F0CCFDDB
:1004E000514904F094FD011C281C04F079FD051C01
:1004F000642003F035FB01235B429C46E3445B46EA
:10050000002BE2D14949281C04F06DFD041C04F0C5
:10051000D5FD02000B000C9806F04CFCFC21201CC1
:10052000890504F0A3FD00284BD00E9806F0BAFB15
:10053000D02380221B0692045A6101234246642084
:10054000137003F00DFB4B46002B14D0C8474346F5
:100550001B78012BABD105230D9C237002F048F9C9
:10056000534604219B6A2000984703234246137098
:100570004B46002BEAD142461378012B2BD0022B9D
:1005800003D0002BF8D1904695E79046D0268025E1
:1005900003243606AD04FA20756103F0E1FA013C4C
:1005A000FA20B56103F0DCFA002CF4D102F010F966
:1005B0005346FA205B6BC0009847032342461370F2
:1005C000C1E70F9806F06EFBD02380221B06920431
:1005D0009A610023B2E79046BDE7C04600C00440E0
:1005E000A81C002000D00440210300102D0300109F
:1005F00055030010650300107D030010B8A500101E
:1006000040DA8E33B80B000008A30010932A0020B4
:1006100014A3001024A3001034A3001044A300105E
:10062000A01C002000E004403333533A0000204176
:1006300010B5040082B001F0B9FE200001F096FE72
:1006400001F0E0FE00236A46D3716B460122D91DFA
:10065000802001F001FF6B46DB79002B09D10120DE
:1006600001F09EFE01F090FE012001F099FE02B023
:1006700010BD022001F094FEF4E7C04610B501F071
:1006800089FE002806D001F085FE062802D001F080
:10069000AFFE10BD01F0B6FE02F09AF8F7E7C046D3
:1006A00070B582B006000D0014001320022201A9CB
:1006B00001F008FF0D4B1B78012B0ED06B461A7909
:1006C0006B462A7001205B79944204D318003100F4
:1006D00002F03CF8002002B070BD054B1B78012BE6
:1006E000ECD1044801F0CEFF0200E9E7892A00209E
:1006F000872A00200207000010B5140082B00A000B
:100700000100002001F0EEFF042001F049FE01A9E4
:10071000230C0B700322230A83204B708C7001F092
:100720009BFE02B010BDC0460100D82010B5C0002D
:10073000082201F003FF002010BDC04610B50D4B8C
:1007400004001B78002B00D010BDD720C00001F0A2
:1007500099FF01230100D720220A9943C9B213400F
:100760001943C00001F024FF0348E1B201F020FF6B
:10077000EAE7C046892A0020B906000070B50026C5
:1007800082B02148019601F07DFFFE210500014065
:100790001D4801F00DFF1D4801F074FF7F2104008A
:1007A00001401A4801F004FF052001F0F9FD012382
:1007B0006A465B421380937069460322822001F0EF
:1007C0004BFE0422124801A901F01CFF6B460122D6
:1007D0001E706946802001F03FFE6B461B78002B9F
:1007E0000DD1012001F0DCFD2900074801F0E0FEF9
:1007F0002100064801F0DCFE019802B070BD022025
:1008000001F0CEFDF0E7C046E2080000E508000078
:100810001908000010B582B0041C01F0E9FF6B4616
:100820006007D91DA307C00FDB0F5B008000E40742
:100830001843E40F204308700122842001F00CFECD
:10084000002001F0ADFD02B010BDC04600B583B080
:100850006B460122D871D91D802001F0FDFD6B4649
:10086000DB79002B04D1012001F09AFD03B000BD1B
:10087000022001F095FDF9E710B5040082B00520D3
:1008800001F08EFD01A9230C0B700322230A8220A4
:100890004B708C7001F0E0FD02B010BD10B504008B
:1008A00082B0052001F07CFD9621074801F080FE12
:1008B00001A9230C0B700322230A82204B708C7039
:1008C00001F0CAFD02B010BDAC080000FF2200B567
:1008D0000302120202401B0EC0B2000413430A0CB2
:1008E0001206034383B0134300936B4649BA9980C1
:1008F00006226946942001F0AFFD062001F050FD6C
:1009000003B000BD10B500220021C52001F0A4FDF8
:10091000072001F045FD10BD10B500220021D120B7
:1009200001F09AFD042001F03BFD10BD00B583B03D
:100930006B460122D91D08709F2001F08DFD03B088
:1009400000BDC04670B5031C060082B0F82800D96F
:10095000F8230133DBB25A105C083F2B19D903236B
:1009600001250334A210A4089A406B46A020DA7136
:10097000D91D012201F070FD002E01D102B070BD21
:100980006B46E1006918C9B20348D97101F010FE45
:10099000F4E701230025E7E70607000000B583B070
:1009A0006B460122D91D0870962001F055FD03B059
:1009B00000BDC04630B50D001C00C3B21B02010AC9
:1009C0000F4819432B0A1B040140194309022D0645
:1009D000090A83B029430091D1B20902130A0B43DB
:1009E000220A1204034013431B0224061B0A23435A
:1009F000082269460820019301F02EFD03B030BDA6
:100A0000FFFF00FF10B582B001AC022221001220CE
:100A100001F058FD208840BA80B202B010BDC04637
:100A200000B583B06B460122D91D08709D2001F0EE
:100A300013FD03B000BDC04630B5254C050023783A
:100A400083B0002B19D02800224903F08DFC224BE3
:100A50008903C8181F4903F087FC1E4904002800B9
:100A600003F082FC800324180422862024BA01A902
:100A7000019401F0F1FC03B030BD184B98420DD841
:100A8000174B98420ED96A46164B93800222982043
:100A900001A901F0E1FC01232370D4E76A46124B5F
:100AA0009380F3E7114B984206D8114B984207D92F
:100AB0006A46104B9380E9E76A460F4B9380E5E75F
:100AC0000E4B9842E2D96A460D4B9380DEE7C04652
:100AD000852A0020093D0000841E000000E9A4359D
:100AE00080F8A932D7DBFFFFE1E9FFFF8044E52D65
:100AF000000B6B1B7581FFFFC1C5FFFF40FC541944
:100B00006B6F000000B583B06B46D91D044B0870B5
:100B1000187001228A2001F09FFC03B000BDC0467E
:100B2000892A0020014B18787047C046892A002086
:100B300070B582B004000E0001F048FE012819D102
:100B40000F2C32D0204B01AD0422290095200193B7
:100B500001F082FC231C113431DB5AB20E2A30DC46
:100B6000DBB2022229008E202B706E7001F074FC23
:100B700002B070BD154801F085FD1E231843C1B2B7
:100B8000124801F015FD01AD114B042229009520FA
:100B9000019301F061FC231C093401DAF723DFE73C
:100BA0005AB2162ADCDD1623DAE70A4B01AD04221D
:100BB00029009430019301F04FFC0E23D1E7EF237D
:100BC000CEE70E23CCE7C04604000101D8080000A0
:100BD0000407000106000101F0B5040085B00822F9
:100BE000002102A804F002FB2948227803789A42E7
:100BF00008D06B460270D91D0A708A20012201F0CC
:100C00002BFC2378002B0BD0012B01D005B0F0BDBD
:100C1000236904228B2002A9029301F01DFCF5E751
:100C200061681C4803F0A0FBA76805001A4938005A
:100C300003F09AFB194B88039C461749604403F064
:100C400093FB15490600380003F08EFB8003301833
:100C5000010C637B020AC9B20902D2B212040B432F
:100C60001343FF22000603431202280C2A40C0B29D
:100C70001043EDB2227B2D0412062843104302904C
:100C800008228B2002A9039301F0E6FBBEE7C046D1
:100C9000892A00200000093D093D0000841E000053
:100CA00030B5040085B00922002101A804F09EFAA5
:100CB0003E4D22782B789A4208D06B462A701A70E3
:100CC000694601228A2001F0C7FB2378002B15D04A
:100CD000012B11D16A46A3895BBA9380A37B344A66
:100CE00013706A469371E37BD371238A13810622C2
:100CF0008C2001A901F0B0FB05B030BD617AF1296B
:100D000028D0F2291ED0E579A279207A2D0200049C
:100D10002A430906024363880A43A1781B0A090291
:100D20000B4324482179034009040B436179029263
:100D30006A461B0209061B0A0B430193A37A13732D
:100D40000922D5E76A461C4B13802B78002B1CD058
:100D50000621D8E701236A465B4213802B78002BDB
:100D600001D00221CFE702226946144801F0E6FBD8
:100D7000B02269462B78D2000A80002BF1D10222E2
:100D80000F4801F0DBFB0221BDE7022269460B4858
:100D900001F0D4FB69460B4A2B780A80002BD7D18F
:100DA0000222074801F0CAFB0621ACE7892A00208D
:100DB000872A0020FFFF00FF1D0F0000BC06000077
:100DC000BE0600001021000000B583B06B46022271
:100DD000187159718F2001A901F03EFB03B000BDCD
:100DE00010B582B001AC01222100152001F06AFB90
:100DF00020784042401002B010BDC04610B504003B
:100E000082B00322142001A901F05CFB194B1B786E
:100E10002370002B1ED0012B14D16B461B795B4233
:100E20005B1023736B465B795BB202339B10637379
:100E30006B469B795B425B10A3730F4B1B6823616E
:100E400002B010BD13220021601C04F0CFF90F2363
:100E50002370F5E76A46127922716A465279524246
:100E60005210A2716A469279A36052425210627186
:100E7000E6E7C046892A0020A41C002000B583B004
:100E800001A940BA08800222022001F0E5FA03B06D
:100E900000BDC04601207047F0B54F464646D646D5
:100EA000C0B5140008AA168809AA0D0017780BA966
:100EB0000AAA1278097800284AD0012805D0002013
:100EC000E0BCBA46B146A846F0BD04330901D200E1
:100ED00052189946A300D21A611F944601294BD992
:100EE000002D60D121002A000B3988426A41D2B21C
:100EF0009046002F02D114229246D4446046062C1C
:100F000043D9624619004346023C0832002B00D008
:100F1000A100D343DB171A405018013803F0FCF945
:100F20004B4643439B190C33254A525D0A2A46D847
:100F30009B000133A340234958019200C01A515825
:100F40008000C018C0004B1EC01803F00DFAB7E7B0
:100F500001237B40F31849008918DB00C9001833CE
:100F60005B185801C01A8000C018C000631E210021
:100F7000C01803F0F9F9A3E7311C0C2E00D20C21A4
:100F800060468EB2002F00D11430C243D2171040F9
:100F9000C0181900013803F0BFF94B4643439B19B1
:100FA0000E33023CC0E7012D06D121000C39484226
:100FB0004141CAB290469CE70022904699E7FFDE85
:100FC00004A50010D8A40010044B10B51B68002B1A
:100FD00003D05B68002B00D0984710BDCC1C0020CC
:100FE000044B10B51B68002B03D0DB68002B00D02E
:100FF000984710BDCC1C00200122014B1A7070478D
:10100000862A002010B50020FFF720FC10BDC04646
:10101000124B10B518601248FFF70AFB0020FFF7CB
:1010200015FC0120FFF7BAFC00210020FFF7CCFEE1
:1010300004210020FFF77CFD0A4800230022010064
:10104000FFF7B8FC0849094800F080FE0849094844
:1010500000F07CFE0022084B1A7010BDCC1C002052
:10106000F90F0010FFFF0000C90F0010001F002043
:10107000E10F0010EC1D0020862A002010B501F0C1
:1010800089F90438C3B20020032B01D8014AD05C8F
:1010900010BDC046D4A4001010B5FFF7CDFC10BDA4
:1010A00010B580B201F0EEFA10BDC04610B580B2A6
:1010B00001F07EFA10BDC04670B50C001149002346
:1010C000002205000800FFF775FCFFF72BFD0E4B13
:1010D000012813D0C0229C540C48FFF7E1FD0022E8
:1010E00028002100FFF708FB094B0A4C1968200073
:1010F00000F042FF200000F031FE70BDC7229C547A
:10110000EAE7C04601020000041E0020BC1E0020C9
:10111000FC1E0020001F002010B50420FFF77AFB02
:10112000022000F0F7FD10BD10B5FFF7CFFB10BD9A
:10113000C02010B54000002300220100FFF73AFC58
:10114000FFF7E0FB10BDC04670B50D001400FFF7BF
:1011500073FC280001F034FBFFF7DEFB6101091B83
:1011600089000919044CC900200000F005FF200087
:1011700000F0F4FD70BDC046001F002010B5FFF761
:101180002FFE10BD10B580B201F0D8F910BDC046D9
:1011900010B580B201F036FA10BDC04610B501F0AE
:1011A000F1F8033010BDC04610B5012805D0BF23AB
:1011B0000A48C35C012B09D010BD094B07481970C0
:1011C000C723C154B830FFF76BFDF5E7044B197026
:1011D000C023C154B830FFF763FDEDE7041E0020C3
:1011E000C80F0020104910B5002304000022080099
:1011F000FFF7E0FB002C0DD10C4B1B78002B03D02C
:101200000B48FFF739FB10BD0A4B18688001FFF748
:1012100033FBF8E7084B21001C00180000F0ACFE7F
:10122000200000F09BFDE7E7FFFF00008A2A002076
:10123000FFFFFF00E81D0020EC1D0020104910B545
:101240000023040000220800FFF7B4FB002C0DD19E
:101250000C4B1B78002B03D00B48FFF71FFB10BD76
:101260000A4B18688001FFF719FBF8E7084B2100CB
:101270001C00180000F080FE200000F06FFDE7E782
:10128000FFFF00008A2A0020FFFFFF00E81D00206A
:10129000EC1D0020F0B55F4C83B02378002B01D10A
:1012A00003B0F0BD01A800F0B3FE002301A8237035
:1012B00000F0B4FEFFF7A6FB0400FFF7DFFDE30735
:1012C0004CD4A3070ED5630657D5534B1B78002B80
:1012D00000D196E0514B1B68002B03D01B69002BFB
:1012E00000D0984723062BD4A30512D4A406D7D543
:1012F0004B4800F0FDFD484B1B78002B00D184E0EB
:10130000464B1B68002BCBD0DB68002BC8D098471E
:10131000C6E701F03FF8042862D001F03BF8052849
:10132000E4D13F4800F0E4FD012001F039F83B4BE7
:101330001B68002BDAD0DB68002BD7D09847D5E7A5
:10134000012001F02DF8354B1B68002BCCD09B6998
:10135000002BC9D0E005C00F9847C5E7314800F021
:10136000C7FD012001F01CF82C4B1B68002BA8D0F6
:101370001B68002BA5D09847A3E7294800F0B8FDCB
:10138000254B1B78002B1AD06B46274ED91CFF2209
:101390003000FFF785F9254D2800FFF72FFD1F4B83
:1013A0001B68002B9ED09F68002F9BD069460D23A1
:1013B0000C223000EB56AA56C978B84792E70120B4
:1013C00000F0EEFF00211A4801F0F2F8194801F090
:1013D00059F902231843C1B2164801F0E9F8D3E7DE
:1013E000104800F085FD012000F0DAFF0B4B1B6870
:1013F000002B00D17AE75B68002B00D176E7984795
:1014000074E7012000F0CCFF64E7012000F0C8FF82
:1014100076E7C046862A00208A2A0020CC1C0020BD
:10142000EC1D0020001F0020E81C0020D01C002024
:10143000020900004409000070B50120FFF762FBBB
:101440001D4C25786378AB4200D170BD01206570DA
:10145000FFF758FB26786378B3420DD06670FFF72C
:10146000EBFF002E1ED0E8203421C00001F0A0F8D0
:101470004421124801F09CF8002D09D0E8203421C5
:10148000C00001F095F844210C4801F091F8DCE728
:10149000E8201421C00001F08BF82421074801F056
:1014A00087F8D2E7E8201421C00001F081F8242158
:1014B000024801F07DF8DFE7E41C0020410700004E
:1014C000F0B5454657464E46DE46E0B583B00F00C0
:1014D0000CA910C913AD09782D7889460EA9098881
:1014E0008C460FA90978884610A9097800286AD087
:1014F000012815D0884801F0C5F804231843C1B26B
:10150000854801F055F8380001F05AF9834B149AD8
:101510001A6003B0F0BCBB46B246A946A046F0BD77
:10152000E0227F4EB054F020E2B232547D48934620
:10153000C05C8246F120524632544A460130325451
:10154000002B59D0012B01D10C2C58D0F3230020B3
:101550005A46F054053A3B3B0130F054012A04D876
:1015600063460B2B01D80C239C466246C423F252DF
:1015700042460233F2546C4B00201A78C723F254CF
:101580000133F1540133F554FFF760F9E023F45CC3
:10159000002C3AD10020FFF7B5FA644B5C70644C24
:1015A0002000FFF719FB20002838FFF779FB637C48
:1015B000062B9FD1584801F065F8FB2101405648A1
:1015C00000F0F6FF9FE7E025554E7055E4203450BB
:1015D0000B24083034545D0071D0564B99461800E6
:1015E00001230468A54202D38468A54224D30133B1
:1015F0000830162BF5D1FEE70B3C012CA6D80123B1
:10160000F322B3543B3AB354AFE70120FFF77AFA21
:10161000464B1C785A78A242C1D05C70FFF70CFF91
:10162000002C65D0E8203421C00000F0C1FF442127
:10163000414800F0BDFFB2E7DB004B441879ED23D1
:10164000F054053BF2500023B822B3546246D00058
:10165000BA22B05239480232B0520232B354012396
:1016600042465A401300BF22B3544B425941F02323
:1016700049429943F2312F3BF154BE3A01330020E5
:10168000F254FFF7E3F8E023F45C002C19D10020BA
:10169000FFF738FA254B5C70254C2000FFF79CFAC9
:1016A00020002838FFF7FCFA68460200244B12CBD2
:1016B00012C2FFF739F82348FFF740F81AE71F2056
:1016C000BDE70120FFF71EFA184B1C785A78A2429A
:1016D000E2D05C70FFF7B0FE002C13D0E82034217C
:1016E000C00000F065FF4421134800F061FFD3E71C
:1016F000E8201421C00000F05BFF24210E4800F018
:1017000057FF4CE7E8201421C00000F051FF2421CE
:10171000094800F04DFFBFE789080000FC1E0020CB
:10172000041E002004A50010C80F0020E41C0020A7
:10173000E41E002008A50010410700000418000066
:1017400024A60010FF010000F0B55746DE464E46C5
:101750004546E0B587B0029311AB1B8890469B4687
:1017600012AB1F8813AB1B780C009A4614AB1A7887
:1017700015AB1B789F49019318AB1B7806000393A8
:1017800019AB1B780B7059424B415B421F405346CB
:10179000002B00D1FF22984B99461A70002E67D07B
:1017A000012E06D007B0F0BCBB46B246A946A04603
:1017B000F0BD0020FFF7BAF8E023904DF022EE5480
:1017C0004346DBB2AB548E4A115DF122A954029913
:1017D0000132A954002C69D0012C02D142460C2AB6
:1017E00068D0F3220021053BA9543B3A0131A954AA
:1017F000012B04D85B460B2B01D80C239B46C4233A
:101800005A46EA5252460233EA544B461A78C723E4
:10181000EA54019A0133EA54039A01330020EA544E
:10182000FFF714F8E023EC5C002C51D10020FFF707
:1018300069F9744B5C70744C2000FFF7CDF92000FF
:101840002838FFF72DFAF8B2FFF77CF8C923E03CFF
:10185000E35C6E48012B33D000F014FF04231843DF
:10186000C1B26A4800F0A4FE69486A4B186099E763
:101870000020FFF75BF8E0234246604D6400EE5421
:101880000433EA500B220833EA54002C00D184E0E0
:1018900061480A3A030019688C4202D399688C4265
:1018A0002DD301320833162AF5D1FEE742460B3A12
:1018B000012A96D80123F322AB543B3AAB549EE75E
:1018C00000F0E0FEFB210140504800F071FECBE744
:1018D0000120FFF717F94B4B1C785A78A242AAD087
:1018E0005C70FFF7A9FD002C70D0E8203421C00007
:1018F00000F05EFE4421494800F05AFE9BE7D2000A
:1019000080180279ED23EA540023B822AB545A46DA
:10191000D100BA22A95242490232A9520232AB5432
:10192000012352465A401300BF22AB544B461A784B
:10193000C023EA54019B00205A425341F0225B42EB
:101940009343F2332F3AAB54C223C03AEA54FEF722
:101950007DFFE023EC5C002C21D10020FFF7D2F8C2
:10196000284B5C70284C2000FFF736F920002838FF
:10197000FFF796F904A802002A4B12CB12C2FEF719
:10198000D3FE2948FEF7DAFE7801C01B8000C0199B
:101990004146800102F0E8FC67E71F22B2E7012020
:1019A000FFF7B0F8174B1C785A78A242DAD05C7077
:1019B000FFF742FD002C13D0E8203421C00000F0D6
:1019C000F7FD4421154800F0F3FDCBE7E820142192
:1019D000C00000F0EDFD2421104800F0E9FD2AE7E9
:1019E000E8201421C00000F0E3FD24210B4800F0A2
:1019F000DFFDB7E78A2A0020C80F0020041E002060
:101A000004A50010E41C0020E41E0020360700009E
:101A1000FFFF0000E81D002008A50010410700009E
:101A20000418000024A60010FF010000F0B5C6460F
:101A30008046002400B500208AB00F0016001D006B
:101A4000FFF760F8244B40465C70FEF7F5FF01237A
:101A5000962209930233390000200193920000235B
:101A600008940794069405940494039402940097B0
:101A7000FFF76AFE1949002300220800FEF79AFFCB
:101A8000174B1B78002B1ED01648FEF7F5FE0120E1
:101A900000F040F900F082FA040003E0FFF7A0F93B
:101AA000864216DB200000F07FFAA842F6D301241C
:101AB0000420FEF7AFFE022000F02CF920000AB04F
:101AC00080BCB846F0BD084B18688001FEF7D4FE14
:101AD000DDE70024ECE7C046E41C0020FFFF000027
:101AE0008A2A0020FFFFFF00E81D002070B50128B2
:101AF00006D00020FFF706F80022204B5A7070BD78
:101B00000120FEF7FFFF1D4C25786378AB42F6D02D
:101B100001206570FEF7F6FF26786378B3420DD09A
:101B20006670FFF789FC002E1ED0E8203421C0002B
:101B300000F03EFD4421124800F03AFD002D09D08E
:101B4000E8203421C00000F033FD44210C4800F0AF
:101B50002FFDD4E7E8201421C00000F029FD242146
:101B6000074800F025FDCAE7E8201421C00000F076
:101B70001FFD2421024800F01BFDDFE7E41C0020CC
:101B800041070000F8B52C4D030203430400012077
:101B90002B80FEF7B7FF2E786B78B34215D1002C5F
:101BA00009D0E8203421C00000F002FD4421234880
:101BB00000F0FEFCF8BDE8201421C00000F0F8FCA5
:101BC00024211E4800F0F4FCF4E701206E70FEF7BB
:101BD00099FF2F786B78BB420DD06F70FFF72CFC0C
:101BE000002F1ED0E8203421C00000F0E1FC442189
:101BF000124800F0DDFC002E09D0E8203421C0009E
:101C000000F0D6FC44210D4800F0D2FCC7E7E820E4
:101C10001421C00000F0CCFC2421084800F0C8FCCE
:101C2000BDE7E8201421C00000F0C2FC24210348D5
:101C300000F0BEFCDFE7C046E41C002041070000C6
:101C4000F8B50120FEF75EFF304C25786378AB4293
:101C500008D10023002200210020FEF7ABFEFEF792
:101C60008DFDF8BD01206570FEF74CFF2678637886
:101C7000B34212D001206670FEF744FF27786378E4
:101C8000BB422AD1002E1ED0E8203421C00000F033
:101C90008FFC44211E4800F08BFC002D09D0E82069
:101CA0003421C00000F084FC4421194800F080FC7D
:101CB000CFE7E8201421C00000F07AFC242114486A
:101CC00000F076FCC5E7E8201421C00000F070FCAD
:101CD00024210F4800F06CFCDFE76770FFF7ACFBD6
:101CE000002F09D0E8203421C00000F061FC44211D
:101CF000074800F05DFCC5E7E8201421C00000F0B3
:101D000057FC2421024800F053FCBBE7E41C0020F0
:101D10004107000010B500F085F910BD30B583B063
:101D200006AC2478079D0094019500F093F903B068
:101D300030BDC04610B500F005FA10BD10B500F07A
:101D4000E9F910BD10B500F0F1F910BD00230360F2
:101D500043600381C16003614361704770B582B025
:101D6000050001A800F054F9002D09D02E4E34686A
:101D7000002C03D125E06469002C06D0A542FAD1DD
:101D800001A800F04BF902B070BD6B682B60012315
:101D90002B8100F001FA2B683168C01828600B68AD
:101DA00098422ED34B69002B05D125E05A691900C2
:101DB000002A22D013001A689042F7D84D616B6157
:101DC000DEE76B682B6001232B8100F0F1F93368AB
:101DD000002B00D05C726B61356000F0F7F90123D5
:101DE0006B7204002E6800F0D7F92018864216D3D3
:101DF000286800F0EDF9C3E70B005D6100236B611B
:101E0000BEE74C726961356000F0E0F901236B7246
:101E100004002E6800F0C0F920188642E8D200F0D5
:101E2000BBF920182860E4E7F81E0020F8B500F0A0
:101E3000C7F9050000F0BCF92C4C2668002E33D001
:101E40007369411B9C460027281A002B07D01A688B
:101E500091422BD282181A605B69002BF7D163463E
:101E6000236000233372F368002B2AD0306998472F
:101E700023680026002B0CD116E023685A691E72D5
:101E80002260DA68002A10D0186990472368002B76
:101E90000AD01D6800F080F98542EED32468002C3A
:101EA00002D0637A002B0DD0F8BDFEE71F605B699E
:101EB000002BCCD16346236000233372F368002BE0
:101EC000D4D1FEE700F082F9012363720500266891
:101ED00000F062F92818864203D3206800F078F9F0
:101EE000E2E700F059F928182060F7E7F81E002013
:101EF00070B582B0040001A800F08AF81D4D2B686F
:101F0000002B0CD0002C0AD000222272A34202D156
:101F10000DE09C4208D01A005B69002BF9D101A8A2
:101F200000F07CF802B070BD63695361F7E7597A3D
:101F30005C69002912D05A72002C11D02C6000F07C
:101F400045F9012363720500266800F025F9281879
:101F5000864209D3206800F03BF9E0E72C60DEE719
:101F600000F066F92C60DAE700F016F92818206016
:101F7000F1E7C046F81E002070B50500080000F02B
:101F800065F904002800FFF7B3FF00F01FF9844251
:101F900000D204002C606C6070BDC04610B500F02B
:101FA0005BF900F05DF910BD70B5041E09D000F0BA
:101FB00053F90500200000F049F9281A00F050F903
:101FC0000400200070BDC04600B583B000F0D0F81A
:101FD000122310220C48012103751633C254113B01
:101FE00003700F3A4D33C25440330C32C254A53BF8
:101FF00001930F336430009302320A3300F036F954
:1020000000F086F903B000BD041E00207047C046F2
:10201000EFF3108372B603607047C046036883F322
:102020001088704710B543011B1A9B001818C00098
:1020300001F04EFE10BDC046054B10B51B68002BCD
:1020400004D01B69002B01D00020984710BDC0466A
:10205000F0250020F0B5C64600B5150006AA1E0002
:10206000137807000C00984601704B1C10D0080034
:1020700000F0B2FD002D0ED0012D1BD0002E07D197
:102080004346002B11D100220021200000F014FD56
:1020900080BCB846F0BD0123D022A3401206936253
:1020A000002EF5D14346002BEDD0012B2CD0022B76
:1020B000EED10DE02B00D022A34012065362002E79
:1020C0000DD14346002B19D0012B1DD0022B06D178
:1020D00001220021200000F0EFFC012DD8D10022C8
:1020E0000123BA569340079A002A03D0D022120641
:1020F0005361CDE7D02212069361C9E70022002187
:10210000200000F0D9FCEAE700220121200000F0C5
:10211000D3FCE2E70022012382569340D02212062C
:10212000002901D0536170479361FCE7002101222F
:10213000D02341561B068A405B6813401800431E9B
:102140009841704710B5054A03611060007801227C
:102150000821034B40B200F0C3FC10BDF025002065
:102160003920001010B5FFF761FE0020002110BDDE
:1021700010B501F08DFD1022022101F02DFB044B62
:10218000186001F09BFD034B1860596010BDC046FC
:10219000602A002060170020044B70B51C685D6841
:1021A00001F08CFD001BA94170BDC04660170020E6
:1021B00010B501F083FD014B03C310BD6017002073
:1021C000014B18687047C046601700200120704717
:1021D00070B5124D04002968114E84B0002902DB4D
:1021E000306801F015FC002120000E4B1A685B6876
:1021F00012184B41802109068B4202D301220A4B5F
:102200005242012130680291002101910749009159
:1022100001F03CFB286004B070BDC046CC0F00202C
:10222000602A002060170020FFFFFF7F652100105B
:10223000044B10B51968002903DB034B186801F043
:10224000E7FB10BDCC0F0020602A002043011B1AC1
:102250009B001818C000704710B501F02FFD10BD8D
:10226000FA2110B5890002F07FF810BDF8B50027FB
:102270001D0006ABDF574B1E9941144B8C039C4647
:10228000644420001249160007F092F90222114915
:10229000636861180A602168134005325140C832F2
:1022A0000A408021490161180A600B4A30009446B7
:1022B00064442360012100F0E5FB2800012100F0C7
:1022C000E1FB3800012100F0DDFBF8BD00C0034058
:1022D00080969800043000000420000000B583B010
:1022E0006A460B00937100230078D371431E984116
:1022F000064B80039C46911D01236044073207F082
:10230000ABFF6B46D87903B000BDC04600C00340A8
:1023100070B500250126134C82B020000023012255
:102320000D2101960095FFF7F9FC20000023002203
:102330001221903801950095FFF7F0FC2000002352
:10234000002210217C3801950095FFF7E7FC00235F
:1023500001221121044801960095FFF7DFFC02B02D
:1023600070BDC046A81E00208C1C002010B5044C77
:102370000300032201212000FFF7DCFC10BDC04652
:102380002C1E00200520704710B50120FEF748FBE9
:1023900010BDC046014B18787047C046882A0020FF
:1023A000014B18707047C046882A002030B50025C0
:1023B00083B00A20FFF7AEFC0C4C0023012217214A
:1023C000200001950095FFF7A9FC1420FFF7A2FC5F
:1023D000002303221721200001950095FFF79EFCA2
:1023E0000A20FFF797FC03B030BDC046041E002052
:1023F00010B5034C2000FFF7A5FC0128FAD010BD52
:10240000181E002030B583B001A8FFF701FE104C64
:10241000002125002000403DFFF790FCC02128004E
:10242000FFF75CFF00212800FFF758FF2000012183
:10243000FFF784FC903C2000FFF784FC0128FAD0D1
:102440000122044B01A81A70FFF7E8FD03B030BD6C
:10245000A81E0020882A0020F8B5CE46474680B541
:10246000804616000D00FEF709F9144B002199462D
:102470004F461800403FFFF761FC41463800FFF728
:102480002DFF002E09D00024013429783800A4B291
:10249000FFF724FF0135A642F6D101214846FFF798
:1024A0004DFC4346842B05D0054C2000FFF74AFC29
:1024B0000128FAD0C0BCB946B046F8BDA81E00201D
:1024C000181E0020F8B5CE46474680B51600040019
:1024D0000D00FEF7D3F8174B002199464F46180020
:1024E000403FFFF72BFC21003800FFF7F7FE0021EB
:1024F0003800FFF7F3FEC3B29846002E0AD000243E
:1025000000213800FFF7EAFE0134A4B2287001353B
:10251000A642F5D101214846FFF710FC064C2000E9
:10252000FFF710FC0128FAD04046C0BCB946B046BF
:10253000F8BDC046A81E0020181E0020F0B5C646F3
:1025400000B5160004000D00FEF798F8164B0021A8
:10255000984647461800403FFFF7F0FB0D21380032
:10256000FFF7BCFE210A3800FFF7B8FEFF21380054
:102570002140FFF7B3FE002E09D000240134297852
:102580003800A4B2FFF7AAFE0135A642F6D1012118
:102590004046FFF7D3FB054C2000FFF7D3FB012893
:1025A000FAD080BCB846F0BDA81E0020181E00203E
:1025B000F8B506000F00FEF761F8114C0021250068
:1025C0002000403DFFF7BAFB0D212800FFF786FEF3
:1025D000310A2800FFF782FEFF2128003140FFF773
:1025E0007DFE39002800FFF779FE20000121FFF76A
:1025F000A5FB903C2000FFF7A5FB0128FAD0F8BD11
:10260000A81E0020F0B5C64600B5170004000D0056
:10261000FEF734F8194B0021984646461800403E14
:10262000FFF78CFB1D213000FFF758FE210A300018
:10263000FFF754FEFF2130002140FFF74FFE00213D
:102640003000FFF74BFE002F0AD00024002130009D
:10265000FFF744FE0134A4B228700135A742F5D13A
:1026600001214046FFF76AFB054C2000FFF76AFB9B
:102670000128FAD080BCB846F0BDC046A81E002094
:10268000181E002070B50600FDF7F8FF144C00215D
:1026900025002000403DFFF751FB1D212800FFF7DA
:1026A0001DFE2800310AFFF719FEFF2128003140E6
:1026B000FFF714FE00212800FFF710FE002128007C
:1026C000FFF70CFE0121C5B22000FFF737FB903C5D
:1026D0002000FFF737FB0128FAD0280070BDC04664
:1026E000A81E0020F0B5C64600B5150004000E0077
:1026F000FDF7C4FF134B0021984647461800403FA2
:10270000FFF71CFB0E213800FFF7E8FD2100380021
:10271000FFF7E4FD002D08D00024315D38000134BE
:10272000FFF7DCFDA3B2AB42F7D301214046FFF730
:1027300005FB054C2000FFF705FB0128FAD080BC03
:10274000B846F0BDA81E0020181E0020F0B5C646F1
:1027500000B5150004000F00FDF790FF164B002197
:10276000984646461800403EFFF7E8FA1E21300022
:10277000FFF7B4FD21003000FFF7B0FD002130006D
:10278000FFF7ACFD002D09D0002400213000FFF739
:10279000A5FD38550134A3B2AB42F6D30121404622
:1027A000FFF7CCFA054C2000FFF7CCFA0128FAD04D
:1027B00080BCB846F0BDC046A81E0020181E0020F0
:1027C00010B50221FEF7B4F910BDC04602207047D3
:1027D000012300B583B0019300930122002311214E
:1027E0000248FFF79BFA03B000BDC0468C1C0020D6
:1027F000002300B583B0019301330093012200232D
:1028000011210248FFF78AFA03B000BD8C1C00209A
:10281000D0231B061B68974A9900F0B54E4689469F
:1028200051585A4253412F2257464546DE465B4295
:1028300093439846904BE0B59C4683B000270191A6
:10284000E044002939D08D4B0F269B464246FB08B9
:1028500008339B009C5801233D009A460837002C02
:1028600022D031002140264218D05B464A469A5871
:102870002B00EA40203BDB171340524613420DD198
:10288000072208002A40920090400200EB087C4892
:102890003C339B001A502800019B984724090135BE
:1028A000002C01D0BD42DCD3202FCFD103B0F0BC2F
:1028B000BB46B246A946A046F0BD704B00200F2291
:1028C0009B46C6083300414608339B005B58010015
:1028D0000830002B00D1B2E017001F40BC461A425E
:1028E0000FD04C465D460F002C59203FCC40FF17BF
:1028F00027400124274204D16446614F3C36B6008C
:10290000F4511E0900D19AE017003740324213D02B
:102910004C1CA4465D464C462C5965460E00EC40C6
:102920001F3EF61726400124264205D1EE08544CDE
:102930003C363F01B60037511E0A00D17FE0170038
:102940003740324213D08C1CA4465D464C462C596D
:1029500065460E00EC401E3EF61726400124264236
:1029600005D1EE08464C3C363F02B60037511E0BEF
:1029700065D01700374032420DD0CC1CA4465D46CE
:102980004C462C5965460E00EC401D3EF61726407D
:102990000124264257D01E0C51D014003440A446C6
:1029A00032420BD04C46354E0F1D3659FE40B246D2
:1029B0000E0054461C3EF60F26424BD01E0D3ED054
:1029C00014003440A44632420BD04C462B4E4F1DCF
:1029D0003659FE40B2460E0054461B3EF60F2642C4
:1029E00040D01E0E2BD014003440A446324212D0E8
:1029F0004C46224E8F1D3659FE40B2460E005446BC
:102A00001A3EF60F264206D16446FE083C362706DB
:102A10001B4CB60037511B0FCF1D002B0FD04C465F
:102A20005D462E590124FE401939C9173140214213
:102A300005D1F908124E3C311B0789008B51202823
:102A400000D03EE732E7EE080D4C3C363F03B600BF
:102A50003751A0E76446FF083C37BE00084F240406
:102A6000F451ABE76446FE083C362705044CB6003B
:102A70003751B6E7B025002030410140502A0020F0
:102A800000400140094A83009A1810B5146840229A
:102A9000544080322240064CC000A44663441A6071
:102AA000044B9C466044416010BDC04604C00140D8
:102AB00004D0014000400140074B8000C3181B6850
:102AC000C90092000A435A400C231340034A94461B
:102AD000604403607047C04604C0014004D0014018
:102AE000F8B545469846D0231B06DE461C689B4633
:102AF0002B4B57469A46A3004E469946E0B553469F
:102B000016004A469B5807000D00002B34D0434660
:102B1000002B3FD053464A4641469950D0231B06CE
:102B20001C6863425C412F220720634293431D4A85
:102B300038409446FA081100800085403C311A481C
:102B40006344890092000D509B18002E0ED0802205
:102B500092019446634401210D201D6000F028F984
:102B6000F0BCBB46B246A946A046F8BDC0229201C1
:102B7000944663441D60F3E74346002BD1D053468F
:102B800041460D2099500022084900F073F95B4638
:102B90001C68C6E70D20054900F066FABAE7C04692
:102BA000B0250020304101400040014011280010B4
:102BB0008000002905D0064B9C46402360440360FA
:102BC0007047044B9C46402360440360F8E7C046CE
:102BD00004E0014004F001400123D02283401206AA
:102BE00093629361094A83009A1811684022514008
:102BF00080320A400649C0008C4663441A60054B87
:102C00009C460523604443607047C04604C00140B1
:102C100004D00140004001408023DB051868000F0C
:102C20007047C0460FB400B5084883B004F03AF8C6
:102C3000049B002B07D005A91800019103F078FE32
:102C4000034804F02FF8012003F08AFE54A300107B
:102C500064A3001070B5EFF3108C72B60D4D2B68A5
:102C6000002BFCD0BFF35F8F0724CB08C618C05CD5
:102C700001230C40A3401C000440034207D1184329
:102C80003070BFF35F8F2C608CF3108870BD100024
:102C9000FFF7C8FF2C0100D0F8B54746CE4688465E
:102CA00080B5EFF3108C72B6214D2C68002CFCD04F
:102CB000BFF35F8F9A422CD8D4080727055D061909
:102CC00001241740BC402C421FD007210127894610
:102CD00009E0D408055D06194C4639001440A140AE
:102CE0000C00294211D001329342F2D2012040421D
:102CF000BFF35F8F00220E4B1A608CF31088002800
:102D00000FDBC0BCB946B046F8BD25431000357096
:102D1000EEE7BFF35F8F00232B608CF31088012058
:102D200040424346002BECD00898FFF77BFFC0469B
:102D30002C0100D0044A1078431CDBB2172B00D9B9
:102D4000102313707047C046D00F002010B5064BFB
:102D5000064C82B00100009318221F232000FFF7C9
:102D60009BFF02B010BDC04668A30010C025002024
:102D70000021044B044ABFF35F8F02C39342FAD190
:102D80007047C046000100D0800100D0054B064AC4
:102D90001360064A136053609360D36013615361FC
:102DA000936170478080808000E400E004E400E0EC
:102DB0001F2318401E3B8340002905D0C021044A30
:102DC0004900535013607047802201498B50FAE745
:102DD00000E100E001228240034B1B6813405A1EB1
:102DE0009341D8B27047C04600E100E00123834020
:102DF000014A13607047C04600E200E0064B103005
:102E00009B688000C358054A00209B1A2F229A42D3
:102E10004041C0B27047C04600ED00E0D40F002032
:102E200070B50D00EFF3108672B60F4A1368002BD1
:102E3000FCD0BFF35F8F0D4B10309B6884001B5993
:102E40000B4A934203D09D4201D001F087F9074B12
:102E50009B681D51BFF35F8FBFF35F8F0022024B52
:102E60001A6086F3108870BD240100D000ED00E0E8
:102E7000CD010010F0B557464E46DE464546E0B55A
:102E800085B0060000911700EFF3108B72B66A4A06
:102E90001368002BFCD0BFF35F8F0025674B5D5795
:102EA0009A46002D00DAA9E06B00654C01935B198E
:102EB0009B009846A146C1444B4652469B7910362A
:102EC0001370604BB6009B6899590B1B2F2B33D99D
:102ED0005D4B994200D0ACE0019B42469C465B4B67
:102EE0006544AD0063535A4B0232A218043B9B1A4F
:102EF0001B05584A5B0D651913436B80564B012126
:102F0000AB80FF23AB71009BEF71AB604B460B4373
:102F100019004C4B9B689951BFF35F8FBFF35F8FD4
:102F20000022454B1A608BF3108805B0F0BCBB46FD
:102F3000B246A946A046F0BD01200A008243D379DB
:102F40008C46BB4231D84546130044491B1B5B41AC
:102F50005943090D3D4B63533D4B02356519043B05
:102F60005B1B1B053B4D5B0D2B43AA464D466B80FF
:102F70000425AC465546E044131F44441B1B1B0567
:102F80005B0D1D434B46997100999D8099604946A0
:102F9000DF71334B01431360BBE75800C01880005A
:102FA0002018C179B9422FD902000623D356002B2D
:102FB000F3DA02932B4B61460393131D9A460423C5
:102FC0005B429C46E14450464B461B1A1B055B0D79
:102FD0009C46204B95719846634640460343938038
:102FE000019B5A199200039BA418A380029B1C4AC0
:102FF000A371009B2260E771A3608AE701F0AEF83D
:10300000002553465D574FE7908802934005131DF6
:103010009A46031561469C464046D44463460430B4
:103020002018181AE0230005400D1B0218430390D6
:10303000C5E701F093F84FE7240100D08F2A002064
:10304000D40F002000ED00E0CD01001000A1FFFF33
:103050000410002000E0FFFF01BDFFFFAAAA00004E
:103060000148804701BD0000F0B5DE4657464E4698
:103070004546E0B50C0083B0EFF3108872B6634AA2
:103080001368002BFCD0BFF35F8F614B61499A68D6
:10309000030010339F00D55900938D4243D0A542C1
:1030A00054D05D4EAA1B2F2A3DD85C4B9C461B6812
:1030B0009A4601231A0099468240534613401F2224
:1030C00001934B46024093409A4680226346504605
:1030D0009850BFF35F8FEFF305839B46002B37D0EB
:1030E000009B5B4501D001F039F82A004B469A431A
:1030F0009068844208D177E04B005B189B00F3187E
:103100009868844236D01A00062151560029F3DA15
:10311000844255D0019B002B27D0C02251463F4B03
:103120005200995019603A4B9B68DD51BFF35F8F95
:10313000BFF35F8F0022354B1A6088F3108803B00D
:10314000F0BCBB46B246A946A046F0BD0D00EAE77A
:103150002A004B469A4390688442D5D106201056E7
:10316000130000280ADA0D0032E0802351462B4A72
:10317000D150D8E706201856002822DB420011184B
:10318000890074188946A1689960E179D97106218E
:1031900061569971002925DBA488F11A640524156C
:1031A0004C440919E0240905490D24022143998062
:1031B00013181B4A9B001178F31899711070A9E736
:1031C00013005946002914D1FF319171154991809E
:1031D00013490A789A71144A9B1B5B415A43120D9A
:1031E0000A7097E71149E2E70620105613000028FD
:1031F000C4DA0F4A0F49D21A083A5002400D01436F
:1032000099800D4952080A43DA8083E7240100D0EF
:1032100000ED00E0CD010010D40F002000E100E03F
:103220008F2A002001BDFFFFAAAA000001BD0000F7
:103230000E10002000F0FFFF00F8FFFF70B5012422
:103240000443EFF30581EFF3108C72B6214A136843
:10325000002BFCD0BFF35F8F1F4B05001F4AED1AF8
:103260006D416A43120D1E4D8900AE6852B2765808
:10327000A6421CD00621595691421CD01221595603
:10328000914222D01E215956914220D02A215956CE
:103290000324914210D0134B19781A708171BFF337
:1032A0005F8F00220B4B1A608CF3108870BDAB68E7
:1032B0000D4C5C50EFE700246100091989005B1890
:1032C000FF21997109499980E5E70124F4E7022477
:1032D000F2E7C046240100D0D40F0020AAAA0000C3
:1032E00000ED00E08F2A0020CD01001001BDFFFF9E
:1032F00010B5084B084C82B0010000930022052352
:103300002000FFF7C9FC002801DB1F23181A02B0B8
:1033100010BDC04684A30010942A0020024B9C4696
:1033200061448900016070474000003470B5114C61
:10333000114DAC420FD2FF262368002B0CD0FFF7B3
:10334000F9FC01002000FFF7E9FFA680BFF35F8FC3
:103350000834AC42F0D370BDFFF7ECFC0100200054
:10336000FFF7DCFF2671BFF35F8F0834AC42E3D375
:10337000F1E7C046D0150020D815002010B5040094
:10338000FFF7D8FC01002000FFF7C8FFFF232371DF
:10339000BFF35F8F10BDC04610B504000120FFF7DA
:1033A000D5FC034BC3189B002360BFF35F8F10BD98
:1033B00040000034034B9C46614489000160BFF328
:1033C0005F8F7047400000340A4B1968EFF310809C
:1033D00072B60A68002AFCD0BFF35F8F1B68BFF388
:1033E0005F8F00221A6080F3108840BF0020002108
:1033F0007047C046682A0020F0B5DE4657464E4664
:103400004546E0B583B0EFF3058203231340B54A88
:10341000990052580091904601229A409346B24B2F
:103420001A60B24B01935B46B1484363434608229E
:103430009B5E9946002B3ADA43469B881BB2002BD1
:1034400000DB9DE043469B79002B00D0E1E0434642
:1034500008241C5F002C20DB43465A6963001B19BB
:10346000DB00D3189D68DC686B1C00D103E1A04829
:10347000009984466144826A0B69AE1A9B1A9E4287
:1034800013D35A46036A1A420FD0994800F00EFC33
:103490008C4202DCC7D18542C5D940BF03B0F0BC25
:1034A000BB46B246A946A046F0BD0D61EDE74246D7
:1034B00052695B0092464B44DB009A4453469E6837
:1034C000DF6800F0F3FB8F42B6DC00D1F8E0002F9C
:1034D00000DAD9E05246534654691B69019A934277
:1034E00000D1CCE0414652460820085E52880004D4
:1034F00021001043984704000D0023002B4300D106
:10350000C2E0002D00DBDFE030003900001BA941E4
:1035100053469860D96000229A5E002A00DA8BE751
:1035200043465D6953009C18E4002C19A768E468C1
:103530008C4200DD80E702D1874200D97CE7464615
:10354000328108360DE08C4200D1C6E01E00002317
:10355000F25E002A0ADB53009C18E4002C19A768CD
:10356000E4689B18DB00EB188C42ECDD53461A80B4
:103570004B46338043469B881BB2002B00DA61E741
:1035800043461A69EFF3108172B61368002BFCD022
:10359000BFF35F8F43469E88012342465B42938080
:1035A00036B21369BFF35F8F00221A6081F310886F
:1035B000002E00DA46E743465D69083342469C46E2
:1035C0007700BF19FF00EF19BB68604698460823D3
:1035D000D15E9246FC68002907DA0EE0A24246D08E
:1035E00018000023C15E002906DB4B005B18DB00DE
:1035F000EB18DA68A242F1DD524606800023FE5E37
:103600003980002EDCDA904643469B79002B00D1AE
:103610001DE7002342469371434646460821595E02
:1036200008364B1C00D138E747468946556902E009
:1036300006004B1C18D04B005B18DB00E8180A0092
:103640008C46E95E43881BB2002BF1DA01235B4212
:10365000DC178360C4604A4503D031803B89038016
:103660003A81E1464B1CE6D1B8464C46F2E69A68F0
:103670004245B5D9C0E7631C00D0F8E605E7200055
:1036800023699847002825D1534642461B88138159
:103690001269EFF3108372B611680029FCD0BFF3F2
:1036A0005F8F4246514652880A80424649465180C1
:1036B0001269BFF35F8F0021116083F31088BBE6AE
:1036C000864200D803E7B7E6094800F0EFFA001990
:1036D00069411DE7656824680FE7874200D835E730
:1036E00044E7C046402A00203C700540F9330010F2
:1036F0000040054070B52E4C2569002D04D00A21EC
:103700002C48FFF70BFE70BD2B4E0321300000F05C
:10371000C3FAE660FFF70EFB284B03229C46D0233A
:1037200022701B061B6801216370254B6044A36057
:103730000F23800020610220638063694942A180D9
:1037400019800231198647311D83585218315A5257
:1037500075325C399952183201319952183201315F
:103760009952183201319952083518329D5202315E
:103770001832995218320131995218320131995246
:1037800018320131995218320131995218320131EF
:1037900099520C4B0C49DC6001303562FFF740FB5D
:1037A00001210320FFF704FB084B1D60A7E7C0467B
:1037B0001C100020682A0020004005404000003412
:1037C000FFFF1000402A0020F93300103860054048
:1037D000004870471C100020F0B5C646060000B532
:1037E00018200F00904601F0D3FC051E3FD0182191
:1037F000404601F0DFFC39006861300000F04CFA0F
:10380000EE60FFF797FAD0222F70120612681A4B5B
:103810006A709C460122434652429BB26B819B18C0
:103820006B8043466044800028612A81AA80002B77
:103830000BD05A006C694244D200104B12192380FD
:10384000013318349BB29442F9D10124BC400C4B93
:10385000BA0038000B493462D550FFF7E1FA012174
:103860003800FFF7A5FA084B9C46664434602800F0
:1038700080BCB846F0BDC04640000034FFFF0000E9
:10388000402A0020F933001038200000F8B51F004E
:1038900008AB1B7804001600002B08D100F00EFACC
:1038A00032003B00121A8B41002B00DA53E02269F0
:1038B000EFF3108072B61368002BFCD0BFF35F8F5C
:1038C0000223E15E63694A005218D2009B18002966
:1038D00037DB1A8862802269BFF35F8F002515608D
:1038E00080F31088069A9E60DF601A61079A5A6119
:1038F0005A8801325204520C101C002A1FD082B286
:103900005880080410432669EFF3108772B63268B6
:10391000002AFCD0BFF35F8FA2881A80A1802369A0
:10392000BFF35F8F00221A6087F310880B4923785A
:103930008C4601329A40E36863441A60F8BD012066
:10394000DDE72369BFF35F8F00221A6080F31088E0
:1039500001204042F2E70020F0E7C0463C20000092
:1039600070B501000469EFF3108C72B6206800286E
:10397000FCD0BFF35F8F02200D5E4C6968004019D8
:10398000C0002418002D37DB208848800869BFF369
:103990005F8F002606608CF31088E36063880498CC
:1039A000013320615B0405985B0CA26060611A1C06
:1039B000002B1FD093B22804628018430A69EFF3EA
:1039C000108C72B61368002BFCD0BFF35F8F8B880E
:1039D00023808D800B69BFF35F8F00221A608CF308
:1039E00010880B7801329A40CB6808498C466344B2
:1039F0001A6070BD0122DDE70B69BFF35F8F002203
:103A00001A608CF3108801204042F2E73C2000004D
:103A100010B543890A1493421ADD53009B1842697A
:103A2000DB00D3180469EFF3108C72B62268002A09
:103A3000FCD0BFF35F8F5A88090494B2090C8A4204
:103A400008D00369BFF35F8F00221A608CF31088DF
:103A5000002010BD8022120214435C800123026901
:103A60008371BFF35F8F002111608CF310880449CC
:103A700002788C469340C268012062441360E8E7F4
:103A80003C20000040787047F0B504000D00062689
:103A90007642F717C64636196F4100B582B08F429D
:103AA00014D811D000F00AF932003B00121A8B41F1
:103AB000002B17DC002B47D02000290000F046F92E
:103AC00002B080BCB846F0BD8642EBD9002200238C
:103AD00016001F0000F0F2F832003B00121A8B4172
:103AE000002BE7DD00F0EAF832003B00121A8B41B0
:103AF000002B0ADB00230193154B3200009315487D
:103B00003B00FFF72DFF0028D6DB00239C46B04684
:103B1000114A124E736A9F4204D8B16A8845CBD9C4
:103B20009F42C9D11168EFF3108072B60B68002B69
:103B3000FCD0BFF35F8F1368BFF35F8F61461960DE
:103B400080F3108820BFE5E7002AB5D0CAE7C04659
:103B5000C93300101C100020682A002000400540D6
:103B600070B5060000F0AAF8FA2204000D00002348
:103B700030000021920001F013FA802300196941FE
:103B80001B06994202D3012002494042FFF77CFF05
:103B900070BDC046FFFFFF7FF0B5D6464F46464694
:103BA000C0B504000D0082B0EFF305878946002FF1
:103BB0000ED0344900204B6AAB4203D38A6A0130ED
:103BC000A24226D302B0E0BCBA46B146A846F0BD38
:103BD0002D4B9846DB689A46434650461E7800F0C7
:103BE00065F80B00514602000436B60071582000FB
:103BF0008E1A2900801A99418F4211DC0ED020BF05
:103C0000204A0020536A4B45DCD3926A0130A2421D
:103C1000D8D25B1B5A1E9341D8B2D3E78642EED965
:103C200000F04CF822002B00121A8B41002B1ADBFB
:103C300000230193154B2200009340462B00FFF711
:103C40008FFE011E0FDD0F4B5A6A4A4517D39B6A40
:103C5000A34212D34046FFF7DBFE0A4A0020536A14
:103C60004B45AFD3D1E7074A0020536A4B45A9D350
:103C7000926A0120A242A5D2CBE74A45EAD120BFF1
:103C8000E8E7C046004005401C100020C933001082
:103C9000004870470040054010B5024A0248FEF750
:103CA000D9FF10BDA0A30010C42500200300416A65
:103CB0000A00986A596A8A42FAD17047034B596AD6
:103CC0000A00986A596A9142FAD17047004005404B
:103CD00070B5002806DB1C4A916A936A5B1A984209
:103CE000FBD870BD04000025174A536A1900966A74
:103CF000536A8B42FAD13000190024184D41AB426F
:103D000018D9114B5B6A1C005A1C0AD001230124EC
:103D10006442E5175B420C494A6A9A42FCD39A42D4
:103D2000DFD1094A02E0516A9942DAD1916AA1428F
:103D3000F9D3D6E7AB4201D1A642E2D8024A2B0022
:103D4000526A9542E7D8EAE700400540064A536ABE
:103D50009942FCD807D1044B02E05A6A914202D141
:103D60009A6A8242F9D3704700400540F8B5DE46B2
:103D70004E4657464546E0B58B4605000A99180061
:103D8000160000F0F1FA0A9B6C001F02324B641916
:103D90009C46A4006444636881469F4200D96760E2
:103DA0002B1FDBB29846012B30D9C02380229B0108
:103DB000E31812011A60294BAD0059599A4600299F
:103DC0001BD17301E026226853401E4080234246E7
:103DD0005B01E3181E60012A30D9802380229B01F9
:103DE000E31812011A6053464A4667605A51F0BC04
:103DF000BB46B246A946A046F8BD586900F0B4FAE1
:103E0000013043001B18033BFDD2DAE75B46012B70
:103E1000CBD1C02303229B01E3181A60023AA368A6
:103E20001A42FCD07301E0262268AD0053401E40C8
:103E300080230A4A5B019246E3181E605A462168B5
:103E4000514003220A401A6001225B469A40A3684F
:103E50001A42FCD0C1E7C04600800040C8250020BF
:103E6000F0B546464F46D646C0B51F00344B440019
:103E70009C462418A4006444636888461600FF2BFF
:103E800002D880235B006360031FDBB29A46012BDC
:103E900030D9C02380229B01E31812011A60294BFC
:103EA00085005959994600291BD17301E0262268E3
:103EB00053401E40802352465B01E3181E60012AD6
:103EC00030D9802380229B01E31812011A608023DD
:103ED0005B0063604B465F51E0BCBA46B146A84602
:103EE000F0BD586900F040FA013043001B18033B55
:103EF000FDD2DAE74346012BCBD1C02303229B013D
:103F0000E3181A60023AA3681A42FCD07301E02653
:103F10002268850053401E4080230A4A5B01914677
:103F2000E3181E6042462168514003220A401A608D
:103F3000012342469340A2681342FCD0C1E7C04629
:103F400000800040C8250020014B8000C058704709
:103F5000C8250020F8B5040021481E0017000D00F8
:103F600000F002FA0100380000F0FEF9069B36046A
:103F70001B031E432368002B20DB1A4B1A49E3184E
:103F80005A1E93418022920194465B421B0B174AB2
:103F90001B0363441360164A13601F000A689743AB
:103FA000FBD1144B2560E2182123A0601360236825
:103FB000002BFCDA0823E6601360F8BD3F2322687B
:103FC0001340AB42D9D1A3681B051B0D8342D4D14A
:103FD000EE22E368D2021340B342CED1EDE7C046F1
:103FE000001BB7000040FDBF08C0004000E00040DB
:103FF00000F000400430000010B580241C4BE405A4
:104000001C6000281AD001231A4C18431A4BDC619B
:104010001A4C44401C62596298628021144BC905B5
:104020001960174817490860E021C9041960002A7F
:1040300007D18022144B12061A6010BD0E4BD861B6
:10404000EBE753019B1A9B009A18802312015B0433
:104050009A4209D213000D490B60074B5A60802227
:10406000094BD2051A60E8E7094B1A00F3E7C0468E
:1040700000B00540D3C007B0008005402D3FF84F89
:10408000FCFF01000820014000A00540302A00206C
:10409000FFFFFF008023024A9B000B43D36270475F
:1040A00000800540142310B50100188804331B88D4
:1040B000984710BD162310B50100188802331B88DD
:1040C000984710BDF8B54746CE4680B50F1E19D0AB
:1040D00014239946043304000025012698464B46D4
:1040E0001888434621681B88984701C4431E98419D
:1040F000013540420640AF42F1D13000C0BCB94664
:10410000B046F8BD0126F8E7142370B504001888FE
:1041100004331B880D000549984703000020002C3C
:1041200001DB0130A04029009847C04655420000FD
:10413000AA23064A1B0113608D235B00D360044948
:10414000044B19605368002BFCDA704700400240B2
:1041500000B0FA00006002407047C04610B5014848
:10416000FEF760FDC4A3001070B5074D074EB542C1
:1041700009D20024013E761BB60808CD98472300DB
:104180000134B342F9D170BD98A20010D4A200103E
:10419000054B064A06491A60064A074B1A6010008A
:1041A0000B689843FBD1704700E00040BFCDFBFE99
:1041B00008C00040FE7F3C0000F00040044BDB6C78
:1041C000002B03D18022034BD2021A607047C046F5
:1041D000000011504C201150044A054B1A60054A4A
:1041E0001368DB018033FBD17047C046FFFFFF013E
:1041F00000F0004008C000404022034B9A675A6715
:104200001A67DA667047C04600F0014010B5FEF745
:10421000AFFD10BD70B5044D044CA968C02220004C
:1042200000F0EAFFAC6070BD00ED00E0000000208F
:10423000002310B5294C82B0A367FFF779FF012254
:10424000274B1A60636C012BFCD10322254B1A60AB
:10425000224A936B012BFCD1013300930121224AA6
:1042600022480433FFF776FE052301210093204AFC
:104270002048FFF76FFE0022022104201E4BFFF7AB
:10428000EFFD0022012105201C4BFFF7E9FD002274
:10429000002107201A4BFFF7E3FD00220021082030
:1042A000174BFFF7DDFD8023DB0000930022002188
:1042B0000920134BFFF75AFD0022104B0021062066
:1042C000FFF7CEFD0420FFF73FFE0E4900F04CF84B
:1042D00001000020FFF7DEFE02B010BD00800040AC
:1042E0003CB0004030B00040002F685900800240D0
:1042F000008C864700C00240001BB700405973077E
:10430000006CDC0240420F0001480421014B1847B9
:1043100040100020C5400010124A936F9B0815D230
:104320009066D166002905D0FFE7FFE7FFE7516FF0
:10433000106F704704B580210906C217514000284C
:1043400000D0C84305F068FF002104BDF0B5146E2D
:10435000556E576F166FFFF7E3FF14665566576784
:104360001667F0BD000000D0114A936F9B0813D26E
:1043700010665166002905D0FFE7FFE7FFE7516FA0
:10438000106F704704B5002801D00020C04305F02D
:1043900043FF002104BDC046F0B5146E556E576F43
:1043A000166FFFF7E5FF1466556657671667F0BD91
:1043B000000000D094464A4A926F9208624601D2A9
:1043C00028E0C046F0B5464E346E756E776F366F96
:1043D00000F020F89446424A1466556657671667FF
:1043E0006246F0BD94463E4A926F9208624601D200
:1043F00054E0C046F0B53A4E346E756E776F366F46
:1044000000F04CF89446364A1466556657671667AE
:104410006246F0BD002B24DB11D000293EDA00B546
:10442000C943404200D1013100F038F8C94340424D
:1044300000D10131DB43524200D1013300BD002ADB
:10444000EBD1002801D1002905D00020C90FC907F0
:1044500001D1C043410800B505F0C6FE002200238B
:1044600000BD00B500290ADBDB43524200D1013315
:1044700000F014F8C943404200D1013100BDC943E6
:10448000404200D10131DB43524200D1013300F000
:1044900005F8DB43524200D1013300BD002923D18E
:1044A000002B18D1002A0CD0BC460D4F38667A6616
:1044B00000210023FFE7FFE7FFE77A6F386F6746C9
:1044C0007047002801D00748010000B505F08CFEB8
:1044D0000022002300BD02000B00002000217047D5
:1044E000000000D0FFFFFFFF002B00D0BFE0130C47
:1044F00028D1002AE7D080B4114F39667A66FFE7E9
:10450000FFE730B4040C7B6F396F1B0423433B6619
:104510007A66FFE7FFE7FFE7C04684B27B6F3D6F37
:104520001B0423433B667A66FFE7FFE7C046002390
:104530002C042D0C7A6F386F00196941B0BC70479C
:10454000000000D0F0B594460025140E01D11202EF
:104550000835140F01D112010435940F01D19200D6
:104560000235D40F01D152000135D40B0134254F4F
:104570007C66254C3C660E0C93B2FFE7FFE7FFE735
:104580003C6F6643360C7703BE467343DF0B5B0418
:10459000C01AB941130C7343DB18C91ACE0866431D
:1045A000360CB64493B273431F0F1B01C01AB941B6
:1045B000130C73431F0B1B05C01AB941860D8F02E4
:1045C0003E436643360C092D24DB520A7243801A9F
:1045D0007703460A6643360C16235B1BDE40DF403A
:1045E000BF1964466643821B7046043506330100DA
:1045F000D940A840C01900D30131A24206D20023FD
:10460000F0BD0000000000D0FFFFFFFF121B0130D3
:10461000F3D3F1E709277F1BFE406446A2B2724341
:10462000801A00D20139220C7243130C1204821A30
:1046300099410B007046043513370100F940A8403A
:10464000801900D30131002B02D1A2420AD2F0BD61
:10465000013000D30131121BFAD2013BF8D1A24242
:1046600000D2F0BD013000D30131121BF7E7F0B5E5
:104670001C0C00D080E00CB400251C0A04D11B02E5
:10468000160E3343120208351C0B04D11B01160F02
:104690003343120104359C0B04D19B00960F334326
:1046A00092000235DC0B02D192185B4101351C00EF
:1046B000971864410134464F7C66464C3C660E0CAC
:1046C000FFE7FFE7FFE7C0463C6F6643360C770322
:1046D000BE4697B27743C01B00D20139C01B00D23F
:1046E00001399FB27743C91BC91B170C77437E045E
:1046F000FF0B801BB941CE086643360C0C2D33DB13
:10470000B644120B1F053A431B0B97B27743C01BED
:1047100000D201399FB27743C91B170C77433E047F
:104720003F0C801BB941860D8F023E43664329270B
:104730007F1BFE400C3D7746AF40BF1930BCA2B294
:10474000ABB272437343801A9941220C7243130C2B
:104750001204801A994102000B000137001BA94185
:10476000F9D2781E0021F0BD0C277F1BFE40774652
:104770007F0BAF40FF19E0E700245D1C07D0144F0A
:104780007D663966FFE7FFE7FFE7FFE73C6F95B21D
:104790009EB265436643401BB141150C1E0C654338
:1047A000664336042F0C3E432D04401BB141994211
:1047B00004D202000B0020000021F0BD01D1904284
:1047C000F7D3801A994101349942F2D3F6E70000F9
:1047D000000000D0FFFFFFFF48404140484018B4B0
:1047E0001B4B5B68FC46019308BD04DF734A001055
:1047F00018B4174B1B68FC46019308BD00DF7D4AC7
:1048000000109446134A926F920809D2624618B477
:104810000F4BDB68FC46019308BD0CDF354D0010E3
:104820000C4AF0B5146E556E576F166F6246FFF75F
:10483000EEFF084A1466556657671667F0BD18B450
:10484000034B9B68FC46019308BD08DFD94B001061
:1048500068170020000000D0FFB550404240504093
:1048600059404B40594000E0FFB5154F4C00640DD6
:1048700003D0BC4204D10C0314D80020090D090553
:104880005C00640D03D0BC4204D11C030AD8002292
:104890001B0D1B0501264B4009D44B4003D58B4211
:1048A00000D18242FFBD9942FCD19042FFBD0B4333
:1048B000DB1803431343F5D0C9434918FFBD00007B
:1048C000FF07000000B5FFF7CFFF804100BDC046E5
:1048D00000B5FFF7C1FF01D9002000BD012000BDD8
:1048E00000B5FFF7B9FF804100BD012040054A0037
:1048F000121804D85A00121801D80020704701205D
:10490000704700000021002805D17047C1174840BA
:10491000401AFAD0C90713B5064B1B6898470CBC60
:10492000441CA2401005120B0349091B0905194339
:10493000114310BD642A00201F04000010B54C0074
:10494000620D8023D218DB00D21A5B057E2A10DDAF
:104950009E3A13DACC170903490819435242D14051
:10496000640001341532202A05DAD0400843604340
:1049700010BD002010BD0846604310BDC80FC01810
:10498000013810BD18B4044B5B6AFC46019308BDA6
:1049900024DFE54E0010000068170020132370B5D7
:1049A0001D78012D19D014DD1F48FFF783FB060089
:1049B0001E48FFF77FFB1E4C80223100200000F0D4
:1049C0001BFC022D2DD01B48FFF76CFB1A4B186007
:1049D00070BD1A4B164CA364F5E7184B144C2360BA
:1049E0006360A360E36023616361A361E3612362A9
:1049F0006362A362E36223636363A363E363236489
:104A00006364A364E36423656365A365E365236668
:104A10006366A366E36623676367A367E367A364CC
:104A2000D1E7064BA364CEE7534400005346000091
:104A3000681700204C330000642A0020414A00100F
:104A400007B5604601880A0A0230DF2AFAD1C9B2E6
:104A5000820804D3028840880004104300E0006804
:104A6000014A5050039007BD681700200FB403BCE3
:104A70000CBCF0B50124E407634000E0F0B50C0D78
:104A8000CF0F661E3605891B640503D3C943404218
:104A900000D30131640D03D0661CF60A07D0E41B75
:104AA00000207F00791C89078912803C24031D0D9A
:104AB000DF0F6E1E36059B1B6D0503D3DB43524291
:104AC00000D301336D0D03D06E1CF60A07D0ED1B29
:104AD00000227F007B1C9B079B12803D2D032F1B18
:104AE000661B58D4A446202E46DA20371400BC405A
:104AF0001D00BD40F24033412A4380185941CB0F7D
:104B000005D0C943C043002264425041514162462E
:104B10004D0D28D10D0D07D100281FD0241940417B
:104B20004941013A0D0DF9D0640006D3013000D39C
:104B30000131002C01D140084000013A0BD4941CF3
:104B4000E40A04D112051144DB071944F0BDD9076A
:104B5000204B194300E0D9070020F0BD0029DDD12A
:104B6000002CDBD1F0BD0132C6074008CD07284339
:104B70004908002EE1D0D9E73C2E29DA203E403703
:104B80001400BC4000D00124F24014431A00BB4082
:104B90001C43D317ACE7AC46202F08DA20360400BC
:104BA000B4400D00B540F84039412843A5E73C2FFB
:104BB0000CDA203F40360400B44000D00124F84015
:104BC00004430800B1400C43C117EAE71000190084
:104BD000002494E70000F07FF0B50C0D661E36054A
:104BE000891BE60A6405640D02D0651CED0A04D039
:104BF000002001210905803C2403A4461C0D671EEA
:104C00003F05DB1BE70A6405640D02D0651CED0A55
:104C100004D0002201231B05803C24037740644418
:104C200097B484B296B27443070C7E43150C6F435D
:104C300080B26843361802D3012000043F183004C4
:104C4000350C00197D41844688B29AB250430C0C51
:104C500062431F0C7C438EB27E43921902D301261D
:104C60003604A4191604170C3618674101BC81B22A
:104C70009AB25143040C62431B0C5C4380B258430C
:104C8000121802D30120000424181004130C401839
:104C900063412D185E410020474106BC88B293B2A3
:104CA00058430C0C6343120C544389B251435B18B4
:104CB00002D301210904641819041A0C091862416D
:104CC0006D1856410020474118BCF902720D11437E
:104CD000F0026A0D1043ED020A0D03D16D19404137
:104CE0004941013B124E9B1B7600B3420ED26D0030
:104CF00007D30130002671416646354301D1400893
:104D000040001B05C918E4072144F0BD0BDA01334C
:104D100006D1013004D101314F0D01D04908F2E72D
:104D2000E1070020F0BD013631050020EBE700006F
:104D3000FF030000F0B51C0D671E3F05DB1BE70AF3
:104D40006405640D02D0661CF60A04D0002201231B
:104D50001B05803C2403D0252D060026F6432E6635
:104D60001E096E66CE0FF619B44649004F0D02D0EB
:104D70007E1CF60A03D000200021403F3F033E1B6B
:104D8000B600B444013F7F05C91B49082E6F0136A8
:104D900076089C02950D25437543ED137543AD13BD
:104DA00001356D10F603761B0CB4CC02450D2C4377
:104DB000A2B2B3B25A43270C7B43350C6F43A4B263
:104DC0006C431B1902D3012424043F191C041D0C3D
:104DD000A4187D4124196D41009A91B2ACB261438F
:104DE000170C7C432B0C5F4392B25A43A41802D396
:104DF00001221204BF182204230C52187B41019C8B
:104E00006C431B19520ED9010A434401A01A81B206
:104E1000B2B2514303145A43360C734387B27743FB
:104E2000D617D21900277E4136049B191704160C99
:104E30007F185E417316ED18F3010026803375412B
:104E4000A90F06D16400690AE8055B0A184309D274
:104E50002FE00422944480337541A90AA8059B0AD7
:104E6000184326D3404149412404009A019B0D0078
:104E70005543641B4343E41A95B286B27543170C3D
:104E80007E43030C5F4392B25A43B61802D3012209
:104E90001204BF183204330C52197B4152429C4118
:104EA000002C02D40022013051414008CA071043AF
:104EB000490802B06246D7079210084BD218084B37
:104EC0009A4203D212058918C919F0BD0020002AA0
:104ED00001DC3900F0BD01331905F5E7FD030000E1
:104EE000FE070000002200B5203200F004F80800A0
:104EF00000BD000000220B150AD410B5944600F046
:104F000031F81414013400DA0021CB17144C204777
:104F10000020002170476244343A0CD40C2A07DA8E
:104F200004009140904052422032D440214310BDB1
:104F3000D843D94310BD203207D40C469440524286
:104F400020321141D040204310BD0800C917203243
:104F500003D452422032104110BD1800190010BD78
:104F6000174F00100A0DCC0F531E1B05C91A52050E
:104F700003D3C943404200D30131520D03D0531C27
:104F8000DB0A07D0121B00206400611C890789120C
:104F9000803A1203014BD21A70470000FF03000051
:104FA00051434343C9188C46110C83B24B4310B490
:104FB000040C614392B280B2504362431C041B0C48
:104FC000001910BC59411304120CC018514161441E
:104FD000704700004840414048400E4B5B6818470E
:104FE0000C4B1B6818470C4A936F9B0802D2094B65
:104FF000DB681847F0B5146E556E576F166FFFF7E4
:10500000F6FF054A1466556657671667F0BD014BF3
:105010009B68184768180020000000D007B548407A
:105020004140484001E0C04607B54200120E03D09F
:10503000FF2A03D1420218D8C00DC0054A00120E43
:1050400003D0FF2A03D14A020FD8C90DC905012296
:10505000414005D4414001D5814207BD884207BD8A
:105060000143491801D0C043001807BD00B5FFF740
:10507000DBFF804100BDC046C10FC90700D54042DB
:10508000002817D0F44603B40B4B1B68984706BCA6
:1050900081409E384042803107D20B0607D049003C
:1050A000490AC0051043084360470130F8E7490A40
:1050B0008902F5E770470000642A0020034BDB6F8C
:1050C000FC4618477CDF6151001000006818002082
:1050D000132310B512481C78FEF7ECFF0100012CD9
:1050E0000AD003DD80220F4800F086F80E48FEF754
:1050F000D9FF0E4B186010BD0A4C5422200000F05E
:105100007BF80B4B6365A365E36523666366A36663
:10511000E36623676367A367E3672362E361E5E709
:1051200053460000681800204C330000642A002019
:105130003551001007B5604601880A0A0230DF2A9F
:10514000FAD1C9B2820804D302884088000410430F
:1051500000E00068014A5050039007BD6818002025
:10516000C30FDB0741000A0E07D0FF2A08D0090948
:10517000054A8918194340077047190000207047F5
:105180000249C918FAE70000000000380000F07F6B
:1051900010B5040004F044FF002804D0034B0419A8
:1051A0009C4200D810BD0248FDF73CFD00000420E1
:1051B000D0A3001070B505000C0004F0B3FA6C43E6
:1051C000002804D0034B04199C4200D870BD02484B
:1051D000FDF728FD00000420D0A3001001480421A1
:1051E000014B184750100020C5400010014B1B68B0
:1051F0001847000050100020014B5B681847000062
:10520000501000207047C046F8B55746DE464E465F
:105210004546E0B599460A9B07009A460D9B88468D
:1052200093460B9C9B073BD10C9B9C423DD21E1B83
:105230000B9415000C005E442A004B4601352100FA
:105240002020B847B542F7D1A0460B9C002C20D0B7
:10525000454636195346321B013C185D29004B4622
:10526000B847002CF6D12B00350098460D9B9B07C4
:105270000FD55B46EC1A0C9BA3420AD946469846CA
:105280002A004B46310020200134B84701354445FF
:10529000F6D32800F0BCBB46B246A946A046F8BDEE
:1052A00016001500002CD3D1E0E71600002CCFD15A
:1052B0001500EEE7F0B54F464646D646C0B584B079
:1052C00098460EAB1B7894469946129B0D9C109FF6
:1052D000119E9A0725D4002E65D1BC4221D201220D
:1052E0001A409246202C00D1E9E00C9A551E30223B
:1052F00002E0202C00D17BE001342A55A742F8D8E7
:105300005246002A0DD0B4420BD20C9A551E3022C0
:10531000202C02D171E0202C2DD001342A55B4422A
:10532000F9D1DA063CD55A052ED4002C28D10F9A93
:10533000102A00D1B6E0022A00D1BCE030220C9C39
:10534000227001244A46002A65D15A0700D499E008
:105350002B220C9D2A55013403930C9B624600932B
:10536000029643460194FFF74FFF04B0E0BCBA46F3
:10537000B146A846F0BD2024DA06EDD55A0503D47F
:10538000A74266D0B44264D00F9A102A71D0022A84
:1053900057D0202CE0D02200013430250C9FBD5482
:1053A000202CD9D0CEE7012215001D40AA461A4272
:1053B00036D04A46002A4AD10C321A4247D1BC4262
:1053C000A1D2202C91D1202E17D82024DA06C3D5C3
:1053D0005A051BD4202F01D0202ED5D11F220F9D7E
:1053E000102D6FD0022DD8D162250C9FBD54D0E76F
:1053F0005246002A79D0202EBDD92024DA06ABD51A
:105400005A0503D4202FE9D0202EE7D00F9A102A76
:10541000A2D12024A0E72D220C9D2A5501349BE720
:10542000BC4200D37DE7202C00D05EE7DA06F0D541
:105430005A05EED4202F62D0202EEAD134001F224C
:10544000CDE7202C00D187E722000134CCE7013ED4
:10545000B5E7621E012CC2D10F9A102A00D06AE76C
:105460009A063BD558220C9C2270283A627002247E
:1054700068E79A060ED4202CCBD078220C9D2A55B2
:10548000013486E71A0700D466E720220C9D2A55CE
:10549000013461E7202CBCD058250C9A12191570E4
:1054A000013476E79A0608D558220C9C22703022E7
:1054B0006270022446E76032F7E77822F5E7002AB7
:1054C00083D1B3E7A21E013C9D0603D478250C9F2F
:1054D000BD5460E758250C9FBD545CE778220C9CB6
:1054E0002270483A627002242CE7DA0600D433E7CF
:1054F0005A058BD4202F00D044E71F226FE73C00D1
:105500001F226CE710B5002800D110BD01F07EFB12
:10551000FBE7C0460B0010B5002802D049681B68A5
:10552000984710BDF0B557464E464546DE46E0B5B5
:1055300099B08246894690460893229A239B100090
:105540001900FFF7D2F9002800D0CDE02298239966
:105550000122D94B5242FFF7C3F9002800D0C3E023
:10556000229823990122D54B5242FFF7ABF900282C
:1055700000D0B9E02298239900220023FFF7A2F976
:10558000002800D0F1E1229E239F8023269ADB0091
:105590001A400D92269A1A4201D1062324938023A1
:1055A000269A1B011A403B0093460996334300D0CC
:1055B000B3E0002A00D0C2E1002300240A930B9438
:1055C000002304250993259B0024AB4200D95C1BD2
:1055D0000223269A1A400C92269A134203D06B4259
:1055E0006B415B421C40099B002B07D00A9A0B9B26
:1055F00030003900FFF705F906000F0022982399C3
:1056000000220023FFF75EF9002803D0802109065D
:105610007B181F00269AAA4B009601971340089EFC
:105620000493249B03940293424633004946504618
:1056300000F0AAF90400002D67D02020269A4946E0
:10564000024013005A4253415B42621C18400A92C6
:10565000330022004530D047099A6F1ED317D41863
:105660005C40D30F9B46002501E0202D13D008AAF3
:1056700094461F23200063440A2101355E19FEF77A
:1056800073FE3031317020000A21FEF76DFE2600D6
:105690000400092EE9D805230693002304930A3356
:1056A00003935B46089E029310AB0A9A0093494607
:1056B0003300504605970195FFF7FCFD0C9A040056
:1056C000002A22D04246851A259AAA421DD9B04600
:1056D0005746160022004346494620200135B84768
:1056E0000134AE42F6D810E0269B42460493259B37
:1056F00049460393249B50460293229B239C00938C
:105700000194089B00F040F90400200019B0F0BC9F
:10571000BB46B246A946A046F0BD6A4B78009C46FF
:10572000400D6044FFF7F2F8674A684BFFF787F8CF
:10573000674A684BFFF75CF8674A3B031B0B1A4349
:1057400004000D0009981100644B0022FFF747F890
:10575000634A644BFFF773F802000B002000290036
:10576000FFF746F8FFF7EAF80990FFF7CFF85E4A2F
:105770005E4B04000D00FFF762F800225C4BFFF760
:1057800037F8FFF7DBF85B4A5B4B29000C902000F1
:10579000FFF755F804000C980D00FFF7B7F8574ACB
:1057A000574BFFF74CF802000B0020002900FFF7D1
:1057B00016F804000D0002000B000A940B95FFF789
:1057C0003EF804000D000A980B9902000B00FFF749
:1057D0000FF800220E900F914A4B20002900FFF78E
:1057E00010F80022484BFFF703F802000B002000DE
:1057F0002900FFF706F80022444BFEF7F9FF0200EC
:105800000B0020002900FEF7FCFF0A9A0B9B0D00FD
:1058100080210400C9050020FEF7E1FF02000B0013
:1058200020002900FEF7E4FF02000B000E980F99FC
:10583000FEF7E7FF0022284BFEF7DAFF344B0C9C03
:105840009C46644423050022FEF7F9FF04000D0086
:1058500002000B00300039000A940B95FFF732F874
:1058600000285DD123002A00C625099963318D42A5
:10587000AD4159466D420435002900D1A3E61343DA
:1058800063D030003900234A234BFFF721F800286A
:1058900007D0002230003900204BFFF713F8002812
:1058A00053D1249B002B00D18DE60D9B5A1E9341B2
:1058B000249AD31A249386E6FFFFEF7FFFFFEFFFC2
:1058C000FFF7FFFF01FCFFFFFB799F501344D33F1D
:1058D000B3C8608B288AC63F0000F03F0000F83F45
:1058E00061436F63A787D23F71A379094F930A4041
:1058F0000000E03F1655B5BBB16B0240EF39FAFE30
:10590000422EE63F00002C400000244000001840DA
:10591000FF0300002D431CEBE2361A3F80842E412A
:10592000099B0022013B09932000164B2900FEF73A
:1059300068FF0A00010003000A910B9294E700231C
:1059400000240A930B9400230993249A099B9A42FA
:1059500014DDD31A013B24938023269ADB001A43DB
:1059600000230025269209932DE6802212069446F4
:10597000229B1E00239B63441F0006E60023249302
:10598000EAE7C04600002440F0B54546DE464E46F4
:105990005746E0B595B08B46904699461E9A1F9B98
:1059A0000A9019001000209DFEF79FFF002800D0EC
:1059B000B0E11E981F990122C74B5242FEF782FFA9
:1059C000002800D037E11E981F990122C34B524294
:1059D000FEF786FF002800D0A7E01E981F9900223E
:1059E000BF4BFEF77DFF002800D088E01E981F996E
:1059F0000022BC4BFEF766FF002800D07FE01E9817
:105A00001F9900220023FEF75DFF002800D0FAE076
:105A100000230B938023229C229ADB001C401A4215
:105A200000D102E1092D00D87CE106A98C462C00AA
:105A3000172200233021093C62440133D154EF1A6C
:105A4000202B00D132E1A342F7D10022A44B0692D1
:105A500007931E981F99FEF771FF0500FEF756FF8A
:105A600002000B001E981F99FEF7B9FE069A079BCD
:105A7000FEF7E5FE08900991FEF784FF0600FEF7A9
:105A800041FF02000B0008980999FEF7A8FE0022CA
:105A9000954B08900991FEF723FF002800D1D2E032
:105AA00001363000FEF72EFF069A079BFEF710FF27
:105AB000002801D000260135AA46002F00D098E02A
:105AC0002800FEF723FF02000B001E981F99FEF727
:105AD00086FE854B002206000F00FEF7F3FE0CAB9E
